:100000000C9446000C9465000C9465000C946500FB
:100010000C9465000C9465000C9465000C946500CC
:100020000C9465000C9465000C9465000C946500BC
:100030000C9465000C94DE000C9465000C94650033
:100040000C9465000C9465000C9465000C9465009C
:100050000C9465000C9465000C9465000C9465008C
:100060000C9465000C9465000C9465000C9465007C
:100070000C9465000C9465000C9465000C9465006C
:100080000C9465000C9465000C94650011241FBE4F
:10009000CFEFD0E4DEBFCDBF11E0A0E0B1E0EEE3F2
:1000A000F3E100E00BBF02C007900D92AC32B10744
:1000B000D9F721E0ACE2B1E001C01D92A237B2074E
:1000C000E1F70E94C9060C949D090C940000CF939F
:1000D000DF9300D01F92CDB7DEB789837B836A831D
:1000E00089818A3031F48A819B81BC018DE00E9434
:1000F000670080EC90E0FC018081882F90E08072A6
:100100009927892BB1F386EC90E02981FC012083AB
:1001100080E090E00F900F900F90DF91CF910895C5
:10012000CF93DF93CDB7DEB781E890E02BE0FC0101
:10013000208388E890E02DE730E0FC0131832083C4
:100140008FE690E022E0FC01208384E890E0FC014F
:100150001182108280910E0190910F01A0911001E7
:10016000B091110180932D0190932E01A0932F0146
:10017000B09330018FE590E02FE530E0F901208168
:100180002068FC0120830000DF91CF910895CF9378
:10019000DF93CDB7DEB781E890E0FC01108200006C
:1001A000DF91CF910895CF93DF93CDB7DEB781E094
:1001B00080932C010000DF91CF9108951F920F9240
:1001C00000905F000F92112400905B000F922F931C
:1001D0003F934F935F936F937F938F939F93AF93CF
:1001E000BF93EF93FF93CF93DF93CDB7DEB78091AB
:1001F0002D0190912E01A0912F01B0913001019716
:10020000A109B10980932D0190932E01A0932F0194
:10021000B093300180912D0190912E01A0912F017A
:10022000B0913001892B8A2B8B2B91F40E94D30043
:1002300080910E0190910F01A0911001B0911101D8
:1002400080932D0190932E01A0932F01B093300144
:100250000000DF91CF91FF91EF91BF91AF919F91FE
:100260008F917F916F915F914F913F912F910F905F
:1002700000925B000F9000925F000F901F90189506
:10028000CF93DF9300D000D0CDB7DEB769837A83F8
:100290008B839C8389819A81AB81BC8180930E0181
:1002A00090930F01A0931001B093110180910E0162
:1002B00090910F01A0911001B091110180932D0137
:1002C00090932E01A0932F01B093300100000F9066
:1002D0000F900F900F90DF91CF910895CF93DF9300
:1002E00000D01F92CDB7DEB789836A834B838B81A1
:1002F000882371F08A81282F30E081E090E002C0ED
:10030000880F991F2A95E2F7982F8981892B0EC0B3
:100310008A81282F30E081E090E002C0880F991F89
:100320002A95E2F7982F9095898189230F900F9055
:100330000F90DF91CF910895CF93DF9300D0CDB789
:10034000DEB789836A838981882F90E02A81222FF2
:1003500030E002C0959587952A95E2F7817099273C
:1003600021E0892B09F420E0822F0F900F90DF917C
:10037000CF9108950F931F93CF93DF9300D000D0B8
:100380001F92CDB7DEB79D838C8380E290E0FC01A5
:1003900080818095837C8B838C819D81009719F06F
:1003A000019749F00EC08B81823071F481E090E0BA
:1003B0009D838C8309C08B81813041F41D821C8216
:1003C00005C01D821C8203C0000001C000008C819A
:1003D0009D81009721F0019709F43EC0B9C081E0EA
:1003E0008093140183E08093150180911401882F7C
:1003F00090E09A83898316C089819A818F5C9E4F91
:10040000FC01808141E060E00E946E01282F89811B
:100410009A818F5C9E4FFC01208389819A8101968D
:100420009A83898380911501282F30E089819A81F0
:100430002817390708F78091310140E060E00E94F9
:100440006E01809331018091350140E060E00E94AF
:100450006E01809335017CC08B818034D9F5809109
:1004600014018823B9F18091140181508093140103
:1004700080911401082F10E080911401882F90E0E2
:100480008F5C9E4FFC01808141E060E00E946E0124
:10049000282FC8018F5C9E4FFC012083809115019D
:1004A000082F10E080911501882F90E08F5C9E4FFF
:1004B000FC01808140E060E00E946E01282FC801AD
:1004C0008F5C9E4FFC0120838091150181508093A9
:1004D00015013DC08B818038D1F5809115018430A4
:1004E000B1F1809115018F5F809315018091150105
:1004F000082F10E080911501882F90E08F5C9E4FAF
:10050000FC01808141E060E00E946E01282FC8015B
:100510008F5C9E4FFC01208380911401082F10E016
:1005200080911401882F90E08F5C9E4FFC018081A8
:1005300040E060E00E946E01282FC8018F5C9E4F52
:10054000FC012083809114018F5F809314010000CF
:100550008C819D810F900F900F900F900F90DF91E5
:10056000CF911F910F910895CF93DF9300D000D0CA
:100570001F92CDB7DEB79D838C8380E290E0FC01B3
:100580008081809583708B838C819D81009719F089
:10059000019749F00EC08B81823071F481E090E0C8
:1005A0009D838C8309C08B81813041F41D821C8224
:1005B00005C01D821C8203C0000001C000008C81A8
:1005C0009D81009721F0019709F43EC03EC081E073
:1005D0008093120183E08093130180911201882F90
:1005E00090E09A83898316C089819A818F5C9E4F9F
:1005F000FC01808141E067E00E946E01282F898123
:100600009A818F5C9E4FFC01208389819A8101969B
:100610009A83898380911301282F30E089819A8100
:100620002817390708F78091310140E067E00E9400
:100630006E01809331018091350140E067E00E94B6
:100640006E018093350101C000008C819D810F9067
:100650000F900F900F900F90DF91CF910895CF934F
:10066000DF9300D01F92CDB7DEB79B838A8380E2F1
:1006700090E0FC0180818095837089838A819B81D1
:10068000009719F0019749F00EC08981823071F40A
:1006900081E090E09B838A8309C08981813041F4A5
:1006A0001B821A8205C01B821A8203C0000001C08F
:1006B00000008A819B81009719F0019759F01BC0B7
:1006C0008091360190913701019690933701809384
:1006D000360111C08091360190913701892B31F09C
:1006E00080913601909137010E9451091092370193
:1006F0001092360100008A819B810F900F900F901D
:10070000DF91CF9108950F931F93CF93DF9300D084
:1007100000D01F92CDB7DEB79D838C8380E290E03E
:10072000FC0180818095837089838C819D810097F5
:1007300019F0019759F014C0109238018981823064
:1007400091F481E090E09D838C830DC0898181309C
:1007500021F080913801882341F01D821C8205C060
:100760001D821C8203C0000001C000008C819D819D
:10077000009719F0019729F153C280911601082FB3
:1007800010E02091170180911601882F90E08F5C76
:100790009E4FFC01808140E0622F0E946E01282F55
:1007A000C8018F5C9E4FFC01208385E08093170178
:1007B00082E0809316011092390181E08093180144
:1007C0002FC280911601082F10E02091170180910F
:1007D0001601882F90E08F5C9E4FFC01808140E0E5
:1007E000622F0E946E01282FC8018F5C9E4FFC0172
:1007F00020830E944D0927E030E0B9010E94B8082B
:1008000001969B838A8380913901813009F094C0DD
:1008100080911601843009F446C0809116018F5FE3
:10082000809316018A819B81079709F418C18091F2
:100830001301843009F413C1809113018F5F8093F9
:10084000130180911301082F10E080911301882F6C
:1008500090E08F5C9E4FFC01808141E067E00E9448
:100860006E01282FC8018F5C9E4FFC012083809170
:100870001201082F10E080911201882F90E08F5C08
:100880009E4FFC01808140E067E00E946E01282FAE
:10089000C8018F5C9E4FFC012083809112018F5F05
:1008A00080931201DCC082E08093390180911601AF
:1008B0008150809316018A819B81079709F4CFC0EC
:1008C00080911201882309F4CAC0809112018150DD
:1008D0008093120180911201082F10E08091120183
:1008E000882F90E08F5C9E4FFC01808141E067E0A3
:1008F0000E946E01282FC8018F5C9E4FFC0120834F
:1009000080911301082F10E080911301882F90E04F
:100910008F5C9E4FFC01808140E067E00E946E0189
:10092000282FC8018F5C9E4FFC012083809113010A
:1009300081508093130193C080913901823009F076
:100940008EC080911601882329F080911601815074
:10095000809316018A819B810797D9F180911201BA
:100960008823B9F180911201815080931201809106
:100970001201082F10E080911201882F90E08F5C07
:100980009E4FFC01808141E067E00E946E01282FAC
:10099000C8018F5C9E4FFC01208380911301082FBA
:1009A00010E080911301882F90E08F5C9E4FFC0136
:1009B000808140E067E00E946E01282FC8018F5CB3
:1009C0009E4FFC012083809113018150809313017D
:1009D00046C081E080933901809116018F5F80933A
:1009E00016018A819B810797D1F180911301843090
:1009F000B1F1809113018F5F8093130180911301F6
:100A0000082F10E080911301882F90E08F5C9E4F9B
:100A1000FC01808141E067E00E946E01282FC8013F
:100A20008F5C9E4FFC01208380911201082F10E003
:100A300080911201882F90E08F5C9E4FFC01808195
:100A400040E067E00E946E01282FC8018F5C9E4F36
:100A5000FC012083809112018F5F809312018091AD
:100A60001701813029F480911801882309F076C09C
:100A700080911801882331F0809117018150809373
:100A80001701CCC080911701863031F08091170199
:100A90008F5F80931701C2C080911701863009F0E3
:100AA000BDC080911601882F90E08F5C9E4FFC01A5
:100AB000808167E00E949C01813009F048C081E09C
:100AC0008093180180911601882321F482E080939D
:100AD0003901A4C080911601843021F481E0809313
:100AE00039019CC080911601882F90E001968F5C9F
:100AF0009E4FFC01808167E00E949C01813089F457
:100B000080911601882F90E001978F5C9E4FFC0129
:100B1000808167E00E949C01813019F410923901B4
:100B20007DC080911601882F90E001968F5C9E4FCA
:100B3000FC01808167E00E949C01813021F481E00A
:100B4000809339016BC082E08093390167C087E0F0
:100B50008093170181E08093380160C08091170174
:100B6000813009F05CC080911601882F90E08F5C85
:100B70009E4FFC01808160E00E949C01813009F061
:100B800047C01092180180911601882321F481E05A
:100B90008093390144C080911601843021F482E0B1
:100BA000809339013CC080911601882F90E0019616
:100BB0008F5C9E4FFC01808160E00E949C0181302F
:100BC00089F480911601882F90E001978F5C9E4FE9
:100BD000FC01808160E00E949C01813019F4109238
:100BE00039011DC080911601882F90E001968F5C1D
:100BF0009E4FFC01808160E00E949C01813021F4C5
:100C000081E0809339010BC082E08093390107C0F5
:100C10001092170181E08093380101C000000000AC
:100C200080911601082F10E0209117018091160184
:100C3000882F90E08F5C9E4FFC01808141E0622F05
:100C40000E946E01282FC8018F5C9E4FFC012083FB
:100C50008C819D810F900F900F900F900F90DF91DE
:100C6000CF911F910F910895CF93DF9300D000D0C3
:100C7000CDB7DEB79C838B838B819C81892B19F444
:100C80001C821B8203C01C821B8200008B819C8102
:100C9000892B09F01EC080913A01882F90E08F5C6B
:100CA0009E4FFC018081898380913A01882F90E0DA
:100CB000875E9E4FFC0180818A8380913A018F5F1D
:100CC00080933A0180913A01853010F010923A01F8
:100CD000000088E290E02981FC0120838BE290E013
:100CE0002A81FC0120838B819C810F900F900F90B3
:100CF0000F90DF91CF910895CF93DF93CDB7DEB7FB
:100D00002C970FB6F894DEBF0FBECDBF6D837E83E8
:100D10008F83988729873A874B875C878D819E814F
:100D2000AF81B88529853A854B855C85BC01CD01AD
:100D30000E94CC08DC01CB0189839A83AB83BC83FE
:100D400089819A81AB81BC81892B8A2B8B2B29F4D9
:100D500089859A85AB85BC8511C089859A85AB85C7
:100D6000BC858D839E83AF83B88789819A81AB814F
:100D7000BC8189879A87AB87BC87D0CFBC01CD0166
:100D80002C960FB6F894DEBF0FBECDBFDF91CF918A
:100D900008950F931F93CF93DF93CDB7DEB763977B
:100DA0000FB6F894DEBF0FBECDBF81E290E0FC012C
:100DB000108282E290E02FEFFC01208384E290E039
:100DC0002FEFFC01208385E290E0FC01108287E296
:100DD00090E02FEFFC01208388E290E0FC0110827C
:100DE0008AE290E02FEFFC0120838BE290E0FC018F
:100DF00010828AE0E2E2F1E0DE011A9601900D92A3
:100E00008A95E1F785E090E098878F838FEF898757
:100E1000898580933B018AE590E0A0E0B0E0809373
:100E20003C0190933D01A0933E01B0933F0180911E
:100E30003C0190913D01A0913E01B0913F01809312
:100E4000400190934101A0934201B09343018AEB8A
:100E500091E09093450180934401898580934601F8
:100E600084E690E0A0E0B0E08093470190934801D1
:100E7000A0934901B0934A018091470190914801A4
:100E8000A0914901B0914A0180934B0190934C018C
:100E9000A0934D01B0934E0184EB92E090935001EA
:100EA00080934F0189858093510181E090E0A0E01B
:100EB000B0E08093520190935301A0935401B093FA
:100EC00055018091520190915301A0915401B0912C
:100ED00055018093560190935701A0935801B09308
:100EE00059018FE293E090935B0180935A018985C9
:100EF00080935C0184E690E0A0E0B0E080935D0127
:100F000090935E01A0935F01B093600180915D01B9
:100F100090915E01A0915F01B091600180936101A9
:100F200090936201A0936301B093640183E893E01E
:100F3000909366018093650189858093670181E0C4
:100F400090E0A0E0B0E08093680190936901A093E5
:100F50006A01B0936B018091680190916901A09141
:100F60006A01B0916B0180936C0190936D01A09325
:100F70006E01B0936F0184E396E0909371018093CA
:100F800070018A859B85FC0181819281A381B48156
:100F90008B839C83AD83BE831A82198225C089818D
:100FA0009A81880F991F9E012F5F3F4F820F931FD9
:100FB0000996FC0180819181FC012181328143816C
:100FC00054818B819C81AD81BE81BC01CD010E9489
:100FD0007C06DC01CB018B839C83AD83BE8389813E
:100FE0009A8101969A83898329813A818F81988594
:100FF00028173907A0F28B819C81AD81BE81BC018D
:10100000CD010E9440010E9490001A821982A0C066
:1010100089819A81880F991F9E012F5F3F4F820F10
:10102000931F0996FC0180819181FC012581368105
:101030004781508589819A81880F991FBE016F5F12
:101040007F4F860F971F0996FC0180819181FC01DB
:1010500081819281A381B481281739074A075B07F0
:1010600009F045C089819A81880F991F9E012F5FE1
:101070003F4F820F931F0996FC01008111818981E6
:101080009A81880F991F9E012F5F3F4F820F931FF8
:101090000996FC0180819181FC012185328589813D
:1010A0009A81880F991FAE014F5F5F4F840F951F84
:1010B0000996FC0180819181FC018081082E000C41
:1010C000990BF9010995F801808389819A81880F2C
:1010D000991F9E012F5F3F4F820F931F0996FC01BE
:1010E00080819181FC011582168217821086898188
:1010F0009A81880F991F9E012F5F3F4F820F931F88
:101100000996FC016081718189819A81880F991FFC
:101110009E012F5F3F4F820F931F0996FC01808134
:101120009181FC0125813681478150858B819C818D
:10113000AD81BE81820F931FA41FB51FFB01858364
:101140009683A783B08789819A8101969A83898340
:1011500029813A818F8198852817390708F458CF5B
:10116000000080912C018823E1F310922C014DCFD7
:1011700097FB072E16F4009407D077FD09D00E9444
:10118000EE0807FC05D03EF4909581959F4F089599
:10119000709561957F4F0895A1E21A2EAA1BBB1B83
:1011A000FD010DC0AA1FBB1FEE1FFF1FA217B30733
:1011B000E407F50720F0A21BB30BE40BF50B661F49
:1011C000771F881F991F1A9469F76095709580950D
:1011D00090959B01AC01BD01CF010895AA1BBB1BDB
:1011E00051E107C0AA1FBB1FA617B70710F0A61B27
:1011F000B70B881F991F5A95A9F780959095BC0148
:10120000CD0108958F929F92AF92BF92CF92DF92BD
:10121000EF92FF92CF93DF93EC01688179818A810D
:101220009B81611571058105910521F464E279EDD9
:101230008BE597E02DE133EF41E050E00E945C093F
:1012400049015A019B01AC01A7EAB1E40E947B0964
:101250006B017C01ACEEB4EFA50194010E948909F9
:10126000DC01CB018C0D9D1DAE1DBF1DB7FF03C062
:101270000197A109B04888839983AA83BB839F778C
:10128000DF91CF91FF90EF90DF90CF90BF90AF9024
:101290009F908F9008950C9402098EE191E00C9438
:1012A0000209A0E0B0E080931E0190931F01A0937B
:1012B0002001B09321010895052E97FB1EF40094A0
:1012C0000E94730957FD07D00E94CC0807FC03D089
:1012D0004EF40C94730950954095309521953F4FED
:1012E0004F4F5F4F089590958095709561957F4F12
:1012F0008F4F9F4F08950E948E09A59F900DB49F18
:10130000900DA49F800D911D11240895B7FF0C949A
:101310007B090E947B09821B930B0895A29FB00159
:10132000B39FC001A39F700D811D1124911DB29F19
:0E133000700D811D1124911D0895F894FFCFBA
:10133E000000000200000000670000000000010035
:10134E00000001030103020501FEFDFBF7EF0100A2
:0C135E0000003B01460151015C016701E9
:00000001FF
